:02000004C0D06A
:10000000B0B58CB062B603F0D9FC114C0021B0221F
:10001000204603F0B5FD01AD284606F0C7FC288553
:1000200080B2002806D01028F0D002F0ABFB0020F0
:100030000CB0B0BD01A803F0C4FC03F0AFFF012079
:1000400006F0C0F901F022F903F0A4FC02F04EF82A
:1000500080180020B0B598B068462024214601F0F1
:10006000EFFA08A8214601F0CFFA10A8214601F0C6
:10007000CBFA012001F032FA4F2080001E490858C7
:1000800003210140022913D108A80024202221467F
:1000900003F076FD6846014600F034FE10A8015DCD
:1000A0006A46125D4A400255641C082CF6D115E0E0
:1000B0006C462025204621462A4600F041F908A832
:1000C0000146224600F044FC204621462A4600F024
:1000D00037F910A80146224600F03AFC10A8202467
:1000E000214601F027FA08A8214601F023FA092049
:1000F000000318B0B0BDC04630190020F0B581B083
:1001000014460E460546022B10D13046214600F01B
:1001100027FE2046214600F0F5FD0020295C225CE8
:100120004A402A54401C0828F8D114E020272046D1
:1001300021463A4600F004F930463146224600F0A6
:1001400029FE204621463A4600F0FAF8284629467C
:10015000224600F01FFE002001B0F0BDF0B599B0BE
:1001600001AE20243046214601F06AFA09AD284646
:10017000214601F049FA11AF3846214601F044FA10
:10018000012001F0ABF94F2080000A4908580323F1
:100190000340384629463246FFF7B0FF384621462D
:1001A00001F0C8F92846214601F0C4F909200003EE
:1001B00019B0F0BD3019002070B590B06D46202404
:1001C0002846214601F03CFA012001F087F908AEEB
:1001D0003046294600F0C4FD3046214601F0AAF918
:1001E0000920000310B070BDF0B591B005930392E3
:1001F0000C4608907B20C000079023490D18012071
:10020000049001020691284604F052FC002768463B
:10021000076047602026284639462246334604F0C8
:1002200015FC68460760476028463946039A3346FE
:1002300004F00CFC68460760476028463946059A7A
:10024000334604F003FC6846466009AC0460284667
:1002500004993A463B4604F0F9FB06200A49079AFE
:1002600088542846069904F023FC684650C0074984
:1002700028462246334604F0E9FB10212046089A1E
:1002800004F02EFC11B0F0BD3019002001800000F8
:1002900080B50121090204F00BFC80BD10B582B0CD
:1002A00013460A4600216C462160616004F0CEFBD3
:1002B00002B010BD80B582B020226B4606C301217A
:1002C0000022134604F0C2FB02B080BDF0B583B03B
:1002D0001C4615460E460870089F032803D1304679
:1002E00004F0D0FB04E001200102304604F0E0FB02
:1002F000202069460F604860034930462A4623465D
:1003000004F0A4FB03B0F0BD0180000080B504F050
:1003100085FB80BD10B50022802909D300220B4641
:1003200080240C438454D909521C9B0B0B46F7D1F3
:100330008154501C10BD80B504F0A4FB80BD0000AA
:10034000F0B583B015460E460446232000010C4943
:1003500006220A540F1801200102384604F0A8FBB7
:10036000202069460C6048600649384632462B46D4
:1003700004F06CFB2046214600F006F803B0F0BD07
:10038000301900200180000070B588B004460020BC
:100390001F220B5C8D5C6E463554B354521E401CBC
:1003A0001028F6D16846094A7A4420210B4604F009
:1003B000BDFC00201F216A46135C525C225463542A
:1003C000491E401C1028F6D108B070BD0C67000013
:1003D000F0B59DB00D46044623200001E14F0621F3
:1003E00039543E1801200102304604F061FB2022FE
:1003F000684604604260DC49304616462A46334669
:1004000004F024FB00201F21225C635C3D18AB73C9
:100410007B189A73491E401C0F29F5D13D460E35B5
:10042000D24A7A440A9228463146334604F07EFC8A
:10043000684606600B963E462E363046294606959F
:100440002A460A9D2B4604F03FFC68460B99016042
:100450003046314632462B4604F006FC3D464E35CA
:100460000895002128460B9A03F08AFB6D20012194
:100470000491395468460B990160284631462A4652
:100480000A9B04F0F1FB68460B99016038466E3018
:10049000099029462A460A9D2B4604F015FC684619
:1004A0000B99016038468E300590B1497944039626
:1004B00032462B4604F008FC68460B9E06600998FD
:1004C0000146059A2B4604F0CFFB684606600CAD4A
:1004D00028462030079009990A460A9E334604F0C0
:1004E000F3FB68460B99016007980146099A334669
:1004F00004F0EAFB68460B990160284607990A4612
:10050000334604F0E1FB68460B9901602846294612
:10051000099A334604F0D8FB68460B9901602846D7
:100520002946089A334604F0CFFB684606600B99CB
:100530004160904A7A44284629460B9B04F0DCFB34
:1005400068460B99016028462946079A0A9B04F0E1
:10055000BBFB68460B9901603E46CE3630462946C5
:10056000089A0A9B04F0B0FB68460B990160059D50
:1005700028463146079632460A9E334604F0A4FBCD
:1005800068460B990160099829460246334604F0F3
:100590009BFB68460B9E0660284608AB0ECB04F01A
:1005A0007BFB3846AE30744979440A90324603F0FA
:1005B000F0FA2846314604F027FB002806D06846AA
:1005C00006603846CE306F4A7A4416E068460660C8
:1005D0003A466E32694B7B44059D2846089904F0E3
:1005E00043FB2846314604F00FFB00287BD06846C9
:1005F00006603846CE30624A7A44634B7B440146FB
:1006000004F062FB684606603A460E325F4D7D4458
:10061000079801462B4604F057FB684606600A9887
:100620000146039A2B4604F04FFB0020ED21795C34
:10063000049A1140884206D05B49794420230798E8
:10064000024604F0F9FA68460B99016087204000E1
:10065000381809903E464E36544D7D4408950A9907
:1006600032462B4604F000FB68460B990160EE37DA
:1006700038460A9932462B4604F00EFB68460B9E1C
:10068000066007980146099A2B4604F01DFB069860
:1006900009992A463346354604F05EFB0CAE042029
:1006A000307068460560701C0A900799069A089B8E
:1006B00004F00AFB68460560304621303946069A48
:1006C000089B04F001FB41203146024604F070FA19
:1006D00020460A992A4603F05CFA2046214600F09B
:1006E00067F81DB0F0BD684606603D466E35284A85
:1006F0007A44284B7B4409932846294604F0E4FABF
:1007000068460B990160059E304608992A46099B68
:100710000B9D04F0C1FA3046294604F075FA002812
:1007200009D0684605603846CE301D4A7A441D4BD4
:100730007B44014612E0684605603A466E32164E2A
:100740007E4405980899334604F08EFA68460560A1
:100750003846CE30114A7A440146334604F0B4FAA2
:10076000012063E73019002001800000B26600001C
:1007700048660000A06600006C650000FE64000092
:100780003C6500008C650000D8640000C664000071
:10079000C4640000E0630000946300001E64000075
:1007A00068640000A46300009A6400007A6400009A
:1007B000F0B593B0019002AF022038707D1C202666
:1007C0002846324603F0E5F94124204639462246C0
:1007D00004F004FA68460460204639463A463B462F
:1007E00004F0B2F968460460204639463A463B4672
:1007F00004F0AAF968460460204639463A463B466A
:1008000004F0A2F920463946224604F0D1F90198B5
:100810002946324603F0BDF913B0F0BDB0B50C4621
:1008200005462021204604F0F9F820462146FFF72E
:10083000ABFD2846214600F001F8B0BDF0B59BB0F5
:10084000044600201F220B5C8D5C02AE3554B3546D
:10085000521E401C1028F6D10AAD0E49794441269B
:100860002846324603F095F920276846076002AB18
:1008700030462946324604F081F930462946324650
:1008800004F096F9691C20463A4603F082F91BB041
:10089000F0BDC046A063000070B588B00C460546A8
:1008A0006E463046114600F0FFF928462146324692
:1008B00000F0DBF808B070BDF0B58DB017460290BF
:1008C00003AC202520462A4603F063F92034002695
:1008D000802F0BD303A820300026394680223A43CC
:1008E0008255CF09761C890B3946F7D1A7552320AD
:1008F00000010D4906220A540C180120010220466D
:1009000004F0D6F86846456003AD05602136074916
:1009100020462A46334604F099F802982946FFF704
:1009200033FD0DB0F0BDC04630190020018000003D
:1009300070B588B01C4605466E463046FFF7BCFFD2
:1009400028463146224600F003F808B070BD00008A
:10095000F0B591B0044600201F230D5CCE5C09AFBA
:100960003E54FD545B1E401C1028F6D100201F2170
:10097000135C555C01AE35547354491E401C10285D
:10098000F6D120206946086009A901AA084B7B44DA
:10099000204604F069F900201F21225C635C235487
:1009A0006254491E401C0F29F7D111B0F0BDC0465A
:1009B0002661000070B588B01C4605466E4630467C
:1009C000FFF77AFF30463146FFF738FF28463146B9
:1009D000224600F002F808B070BDF0B5A7B0029250
:1009E000049016AF022001903870781C03902026E6
:1009F000324603F0CEF8412420463946224604F020
:100A0000EDF805AD01982870681C0299324603F094
:100A1000C0F820462946224604F0E0F86846046003
:100A2000204639463A462B4604F08EF82046394691
:100A3000224604F0BDF804980399324603F0A9F861
:100A400027B0F0BD80B5FFF7F9FE80BD70B588B066
:100A5000144605466E463046FFF7BAFC2846314636
:100A6000224600F002F808B070BDF0B59BB00190CE
:100A700000201F23145CD55C02AE3554F4545B1E79
:100A8000401C1028F6D10AAF022038707D1C2026A9
:100A90002846324603F07DF8412420463946224656
:100AA00004F09CF86846066002AB204639462246B0
:100AB00004F064F820463946224604F079F801989B
:100AC0002946324603F065F81BB0F0BD70B588B01A
:100AD0000C4605466E46304611461A46FFF7ECFEB8
:100AE00030463146FFF7AAFE28462146324600F03E
:100AF00003F808B070BD0000F0B5A7B001920390F4
:100B000016AF02263E70781C02902022049203F059
:100B100040F8412420463946224604F05FF805ADEE
:100B20002E706E1C30460199049A03F032F820466C
:100B30002946224604F052F80D497944304632469F
:100B4000049E334604F078F868460460204639462F
:100B50003A462B4603F0F8FF20463946224604F079
:100B600027F803980299324603F013F827B0F0BD36
:100B70009A5F0000B0B50A46044651208000084D37
:100B80002918204600F00EF820462146FFF756FEB1
:100B9000692080002A1820462146FFF71EFFB0BDBD
:100BA00030190020F0B591B004920391044605ADD0
:100BB00018497944082728463A4602F0EAFF2846B1
:100BC000083020260399324602F0E3FF28462830F9
:100BD00004993A4602F0DDFF232000010B4906226A
:100BE0000A540F1801200102384603F061FF6846DD
:100BF00050C00749302338462A4603F027FF2046D5
:100C00002146FFF7C1FB11B0F0BDC04630190020EE
:100C10000180000042600000B0B50C460546084661
:100C20001146FFF7A7FF5120800003490A18284604
:100C30002146FFF71AFFB0BD30190020F0B59BB078
:100C4000019000201F220B5C8C5C02AD2C54AB5435
:100C5000521E401C1028F6D10AAF022038707D1CAD
:100C60001049794420262846324602F092FF41245A
:100C700020463946224603F0B1FF6846066002ABC3
:100C800020463946224603F079FF2046394622465F
:100C900003F08EFF01982946324602F07AFF1BB01E
:100CA000F0BDC046DB5F0000F0B591B00446002007
:100CB0001F220B5C8D5C09AE3554B354521E401C90
:100CC0001028F6D101AE00252027304629463A46A5
:100CD00002F056FF0820F0776846076009A9084B24
:100CE0007B442046324603F0EFFF1F20615D225C0B
:100CF00062552154401E6D1C0F28F7D111B0F0BD74
:100D0000D45D0000F0B58DB00D46029003AC1349E0
:100D10007944062720463A4602F03BFFA01D2026D4
:100D20002946324602F035FF2320000109490F54BD
:100D30000D1801200102284603F0BAFE6846029908
:100D400042C0054926232846224603F07FFE0DB007
:100D5000F0BDC04630190020018000004D5F00004A
:100D600070B58CB00E4604466D46094979440F2291
:100D7000284602F00EFF28460F302022314602F0AE
:100D800008FF2F2220462946FFF7DAFA0CB070BD83
:100D9000F85E0000F0B591B0044600201F230D5C02
:100DA000CE5C09AF3E54FD545B1E401C1028F6D1AA
:100DB00000201F21135C555C01AE35547354491E4D
:100DC000401C1028F6D120206946086009A901AA14
:100DD000084B7B44204603F05FFF00201F21225C6C
:100DE000635C23546254491E401C0F29F7D111B093
:100DF000F0BDC046E25C0000F0B591B004460020B2
:100E00001F230D5CCE5C09AF3E54FD545B1E401C9D
:100E10001028F6D100201F21135C555C01AE35541B
:100E20007354491E401C1028F6D1202069460860E2
:100E300009A901AA084B7B44204603F045FF002086
:100E40001F21225C635C23546254491E401C0F29FD
:100E5000F7D111B0F0BDC0467E5C0000F0B58FB098
:100E600008910546002402921046214601931A4635
:100E700002F086FE09AF302116263846049132462C
:100E800002F07EFE089905947C75284608430028E8
:100E900051D009AC1434F64303960A26284608912B
:100EA0003246059F3B4605F0B5FB0790069132465A
:100EB000039E3B4605F0CEFB281A04990843207098
:100EC000A41916340920401B08998F41079D0699E3
:100ED000E3D309AC611C0822204602F05AFE2E2002
:100EE0002072304609A90918CA7D401C302AF9D061
:100EF000059BD9432E2A00D019464A42141A09AA42
:100F0000143293191633641E1278302A1A46F8D018
:100F1000019A551EAC422A4600D8224609AB591800
:100F200009181631029802F034FE01200021AC426B
:100F300005D8084603E004980299087001200FB014
:100F4000F0BDB0B5002407232146C25C2502AA18D3
:100F5000240E090209195C1E002B23461446F4D105
:100F60001046B0BDF0B581B00146007802060026FB
:100F7000002A02D43746344614E04D1C00273C4674
:100F80003E460097392C17D87F2108400021224681
:100F900005F034FB86194F41691CE41D28780206D0
:100FA0000D46EFD47F22024000211046224605F074
:100FB00025FB8019794101E00098014601B0F0BDA0
:100FC000B0B514460D46FFF7CDFF2A462346FFF77E
:100FD00045FFB0BD80B50949887802220243022A44
:100FE00007D14A78FF2A02D0824202D180BD4870E0
:100FF00080BD3720400202F09BFEC0463019002021
:10100000B0B53D20C400204D285DC00739D0E87838
:101010003F2811DD0246703A102A26D8012191405E
:101020001C4A114214D003F0C5FE1B49884228D146
:10103000285D800722D424E0014620391E2904D8E7
:1010400001228A4011490A4218D1022816D018E01C
:101050000522114205D003F0ADFE0F4988420DD0A4
:101060000FE011229201114208D1014640390C29AA
:1010700005D801228A4006490A4200D0B0BDA02806
:10108000FCD0064802F054FE301900205501555599
:101090005515000080590100115010B085690000FD
:1010A00010B5FFF797FFFFF7ABFF4F20840000F06C
:1010B0003FFB75490851C87843280ADC332813DC04
:1010C000252823DC212847DC02286DD100F0BCF95B
:1010D00010BD762811DC4B281FDC472841DC442852
:1010E00067D100F0F0FD10BD3B281DDC37283DDC4A
:1010F000342863D100F04CFE10BD7B281BDC79281E
:1011000039DC77285FD1FFF757F810BD2F2837DC7F
:1011100026285DD100F014FD10BD712835DC4C2867
:101120005BD100F009FF10BD3F2833DC3C2859D1CA
:1011300000F070FD10BD7F2831DC7C2857D1087984
:10114000032800D18FE0022800D189E0012800D0D7
:1011500096E001F0BDFD10BD222854D100F058FCEE
:1011600010BD482854D100F0B2FE10BD382854D12B
:1011700000F04CFE10BD7A2854D1FEF7EFFF10BDF1
:10118000302854D100F0CFFD10BD722854D101F0A9
:1011900083FD10BD402859D100F0ADFD10BD802861
:1011A00059D101F061FD10BD202865D100F094FCFB
:1011B00010BD462860D100F068FE10BD36285BD116
:1011C00000F002FE10BD782856D1FEF743FF10BD97
:1011D000282851D100F00EFB10BD70284CD101F031
:1011E00011FD10BD3E2847D100F032FD10BD7E2814
:1011F00042D1087903283CD0022837D001283FD1BA
:1012000001F0E2FA10BD242836D100F0D1FC10BD67
:101210004A2831D100F079FE10BD3A282CD100F0D7
:1012200016FE10BD7B2827D100F0A2FE10BD32288B
:1012300022D100F090FD10BD76281DD108794979A2
:10124000014300291CD101F08FFF10BD422813D1AA
:1012500000F01CFD10BDA0280ED101F0F9FE10BD5C
:1012600001F084FD10BD01F083FE10BD01F014FB00
:1012700010BD01F053FB10BD6D20000202F058FDBF
:101280006B20000202F054FD3019002010B58320BD
:1012900002010D4C0021204602F072FC0B4803F0C5
:1012A00065FB0B497944082202F02EFD002802D08C
:1012B000002000F00FF83F20C0433F30607000F086
:1012C00039F8C020207010BD30190020C07ED0C079
:1012D000D0590000F0B583B002AD2870124C204602
:1012E00003F044FB0021114A03F082FB01AE4220CF
:1012F0003070204603F03AFB0930012731463A4668
:1013000003F076FB204603F031FB083029463A46CD
:1013100003F06EFB204603F029FB054979440822BF
:1013200003F066FB03B0F0BDC07ED0C052020000E7
:1013300058590000F0B599B040481590002017901A
:1013400018900127F80716902C30149004A86946CD
:101350000860212014A905220CAB03F013FD3848C6
:1013600003F004FB407A212828D00397422860D15B
:1013700061208000334D2C18684604602320000152
:101380002918029106270CAA202638463346FEF774
:101390009DFF20462146FEF7F7FF512080002D18C3
:1013A000684605603846029922463346FEF78EFFAE
:1013B00028462946FEF7E8FF039F18E0204C204608
:1013C00003F0D4FA0146512080001E4E30180A3135
:1013D00020252A4602F0DDFB204603F0C7FA01462D
:1013E0006120800030182A312A4602F0D2FB5920B1
:1013F0008000144E30185121890074182146FFF7DF
:101400001DFA69208000301861218900751829466D
:10141000FFF714FA71208000301804A922462B46E9
:10142000FEF7E2FE3D20C000315C3943315419B073
:10143000F0BD6920000202F07BFCC04667280080F6
:10144000C07ED0C03019002010B584B01A48418940
:101450000089441A0B2C2BD201A8214600F0D4F8A5
:101460001748784403F082FA05F0BAFAA0421CD17A
:101470001448784403F07AFA01A9224602F044FCA9
:10148000002812D1002000F029F8FFF7FFFE012408
:10149000204600F0ABF8032000F0A8F8204600F04A
:1014A000A5F80920000304B010BD044802F040FC78
:1014B0000248401C02F03CFC30190020306900005A
:1014C0001A5800000A58000003494A8912184A8134
:1014D0000A891018088170473019002080B501462C
:1014E0000648002282818260002905D00E304B21FF
:1014F0008A00002102F044FB80BDC0463019002064
:10150000B0B504460A4D28890119FF222E329142B6
:101510000AD26989421A69180E31081902F039FB9A
:10152000288900192881B0BD0120400402F000FC88
:101530003019002070B50C4605460846FFF7E0FF5D
:10154000054E708930180E302946224602F021FBE4
:1015500070890019708170BD30190020B0B582B05B
:101560000D4604460846FFF7CBFF202D12D10C4D47
:1015700068892023694628180E3009C1712080002F
:1015800028184521224603F0C3FA68892030688173
:1015900002B0B0BD014802F0CBFBC046826800003B
:1015A0003019002010B504460420FFF7A9FF0648B3
:1015B00041894218230CD373230E9373230A1374A7
:1015C0005474091D418110BD3019002010B5044626
:1015D0000220FFF795FF044841894218D473230A7B
:1015E0009373891C418110BD3019002010B5044649
:1015F0000120FFF785FF0348418942189473491C75
:10160000418110BD30190020B0B50C460B4D6989E1
:101610002A89521AA2420BDB002805D069180E3124
:10162000224602F0B6FA6989081968812046B0BDE1
:1016300067200002E1B2081802F07AFB301900209E
:1016400010B582B0114C628923899B1A8B4214DB3E
:10165000202918D100280BD02023694609C1712008
:1016600080002018A2180E32412103F051FA62893D
:1016700020326281202002B010BD67200002C9B272
:10168000081802F055FB024802F052FB3019002006
:101690008268000010B5164C61892289521A1F2AEF
:1016A00022DD61180E3100228B5C002B05D1521C0B
:1016B000202AF9D301D1512108E000228B5CFF2BB5
:1016C0000DD1521C202AF9D309D16121890061185A
:1016D000202202F05EFA60892030608102E0202141
:1016E000FFF7AEFF202010BD024802F021FBC046EC
:1016F0003019002020670000B0B50B4841890289ED
:10170000521A032A0DDD4218537C147CD57B927B40
:10171000091D418110062904081821024018C0182B
:10172000B0BD024802F004FB30190020046700003D
:1017300080B506494A890889904204D98818807B77
:10174000521C4A8180BD024802F0F2FA3019002092
:1017500001670000B0B50446C0060FD4194D002043
:1017600068812A89FF2A29D229460E31164802F0BB
:1017700010FA2989A0061CD4002001E010200021C5
:1017800002F014FE0F4C0020A060E0710E490878B2
:10179000A0704878E07088782071C87860710A7904
:1017A000A27120460E30491D02F0F3F9A079208184
:1017B00002E0202002F0FAFD0020B0BD034802F054
:1017C000B7FAC046301900206C210020846A00005E
:1017D00070B519254A26064C204603F0C7F8801933
:1017E0000021142203F004F914366D1EF4D170BDEB
:1017F000C07ED0C0F0B587B07E4C2079022800D1E1
:10180000DEE0012800D0E0E0FFF776FF0646FFF7B4
:1018100073FF821978494B1C00930492824200D2D4
:10182000E3E08E4200D9E0E004980099884200D9B4
:10183000DBE00021039601916120800020188900DF
:10184000425C4B1CC35C1B029A188B1CC35C1B04C0
:10185000D218C91C405C0006151802952846674935
:101860000E4604F03FFE009941436F1A05AD2F80EC
:10187000C019314604F0BCFE0E46698002986049EA
:1018800004F030FE3018039E5C4904F0B1FEA980DC
:101890000320019948430290002502E0680005A951
:1018A0000F5AB9B28E422CD80498884229D902988E
:1018B000281863894B229200D21AE7180E37334654
:1018C0008E4209D23E78761C921B002A00DA80E014
:1018D000BF195B1C8B42F5D38B4200D080E03E7871
:1018E000132E7DD8B2427BDD14244443454803F0D7
:1018F0003DF800194A30791C324603F079F83D4C26
:10190000039E6D1C022DC9D90199491C082992D347
:101910000120FFF7E3FD6379002B56D000274A2210
:10192000384E19460397049709060399314F144618
:1019300010D00025304603F019F80019415D7B797D
:101940001A4604984243BA18521991736D1C9D426D
:101950001946EFD322461432049C641C182C2746E7
:10196000E1D1D9B2182048430024002916D0002123
:10197000C943204C0E34254A7A4423782546CCB2FC
:101980005C40A3002C46D358090A59406C1C401EE9
:10199000F3D1C843182104F02BFE0C46194D2846FC
:1019A00002F0E4FF1849461814277C43284602F049
:1019B000DDFF01194A3130463A4603F019F804E0D8
:1019C0000020FFF78BFDFFF703FF0920000307B09E
:1019D000F0BDFFF7FDFED520C001401C02F0A8F9C4
:1019E000D520C001801C02F0A3F9D520C00102F06F
:1019F0009FF9C04630190020590600005A06000021
:101A0000A4572800C07ED0C02A0200000C5300005A
:101A1000F0B599B02E480089DF2855D101AD2024BA
:101A200028462146FFF7F0FD09AE30462146FFF774
:101A3000EBFD11AF38462946FEF700FF3046394628
:101A4000224602F061F900283AD1224802F08EFFC6
:101A50000A3001AD20242946224602F0C9FF28465B
:101A60002146FFF7D1FD09AE30462146FFF7CCFDF8
:101A700011AF38462946FEF7E1FE30463946224688
:101A800002F042F900281BD1124C204602F06EFFF2
:101A90002A3001A9202202F0ABFF6D4621202870D8
:101AA000204602F063FF093001242946224602F055
:101AB0009FFF2046FFF712FD0920000319B0F0BD7B
:101AC000D520C00102F034F96720000202F030F99D
:101AD00030190020C07ED0C0F0B581B00120FFF7E2
:101AE000FDFC164F387902281ED0012821D159203B
:101AF00080003C18202520462946FFF71BFD692061
:101B000080003E1830462946FFF714FD78893818C2
:101B10000E3000232146324600F04EFF5F20FFF7D3
:101B2000D3FC0920000302E001F0E6FC002001B034
:101B3000F0BD6B20000202F0FBF8C0463019002017
:101B400010B598B008A8FFF7A5FD10A82021FFF751
:101B50005BFD1648017902290AD0012906D0002927
:101B600020D1684608A9FEF76DFF08E0592100E082
:101B700069218900411810A8202202F00AF868465D
:101B800010A9202202F0C0F804460120FFF7A6FCAD
:101B90000020001B44412046FFF704FD09200003FC
:101BA00018B010BD6B20000202F0C2F830190020FE
:101BB00070B59AB00020FFF791FC51208000144EC0
:101BC000311809AC202520462A4601F0E2FF6120A9
:101BD00080003118204620302A4601F0DAFF4020EC
:101BE0008C21215401A86946086023200001311886
:101BF000062041232246FEF769FB31200001301800
:101C0000C821FFF797FC092000031AB070BDC04639
:101C100030190020F0B599B011AD20242846214696
:101C2000FFF70EFD09AE30462146FFF709FD002003
:101C3000FFF754FC01AF384629463246FEF788FECE
:101C400038462146FFF78AFC0920000319B0F0BD91
:101C5000F0B599B011AD202428462146FFF7F0FCDD
:101C600009AE30462146FFF7EBFC0020FFF736FCBB
:101C700001AF384629463246FFF78CF838462146F0
:101C8000FFF76CFC0920000319B0F0BDF0B599B066
:101C900011AD202428462146FFF7B6FC09AE304698
:101CA000FFF7F8FC0020FFF719FC01AF3846294682
:101CB0003246FEF7DAFE38462146FFF73BFC0920A4
:101CC000000319B0F0BD70B590B008AD20242846CF
:101CD0002146FFF7B5FC0020FFF700FC6E463046BA
:101CE0002946FEF7ABFD30462146FFF723FC0920CD
:101CF000000310B070BD70B590B00020FFF7EEFB90
:101D00006C4608AD20462946FEF788FD2026204671
:101D10003146FFF70FFC28463146FFF71FFC09202C
:101D2000000310B070BD70B590B008AD20242846F7
:101D30002146FFF785FC0020FFF7D0FB6E463046BA
:101D40002946FEF77BFD30462146FFF7F3FB0920CD
:101D5000000310B070BDF0B599B011AD2024284635
:101D60002146FFF751FC09AE3046FFF793FC0020F7
:101D7000FFF7B4FB01AF384629463246FEF78CFD2B
:101D800038462146FFF7EAFB0920000319B0F0BDF1
:101D9000F0B591B009AD202428462146FFF750FC4C
:101DA000FFF7AAFC06460020FFF798FB01AF384674
:101DB00029463246FEF780FD38462146FFF7CEFB26
:101DC0000920000311B0F0BDF0B599B011AD202489
:101DD00028462146FFF734FCFFF78EFC009009AF40
:101DE00038462146FFF710FC0020FFF777FB01AED5
:101DF00030462946009A3B46FEF7DCFD3046214638
:101E0000FFF798FB0920000319B0F0BDF0B599B0B9
:101E100011AD202428462146FFF712FCFFF76CFC89
:101E2000009009AF3846FFF735FC0020FFF756FB5E
:101E300001AE30462946009A3B46FEF779FD304612
:101E40002146FFF78BFB0920000319B0F0BDF0B568
:101E500099B011AD202428462146FFF7D5FB09AEE5
:101E600030462146FFF7ECFB0020FFF737FB01AFC0
:101E7000384629463246FEF7E9FD38462146FFF747
:101E800059FB0920000319B0F0BDF0B599B011ADB0
:101E9000202428462146FFF7B7FB09AE30462146ED
:101EA000FFF7CEFBFFF728FC00900020FFF716FBA2
:101EB00001AF384629463246009BFEF707FE3846FA
:101EC0002146FFF737FB0920000319B0F0BD70B5BC
:101ED00092B010AC08212046FFF796FB0020FFF7D8
:101EE000FDFA08AD6E46284631462246FEF794FEBE
:101EF000202428462146FFF71DFB30462146FFF7E8
:101F000019FB0920000312B070BDB0B58AB008AC4F
:101F100008212046FFF778FB0120FFF7DFFA6D4626
:101F200028462146FEF726FE20212846FFF702FB21
:101F3000092000030AB0B0BD70B592B00AAC2046CB
:101F4000FFF7A8FB08AD08212846FFF75DFB00203E
:101F5000FFF7C4FA6E46304621462A46FEF722FEB7
:101F600020213046FFF7FAFA0920000312B070BDB5
:101F7000F0B5A7B0FFF7C0FB1FA8FFF78BFB5A4FC8
:101F8000788905900024202520462946FFF73CFB50
:101F90007889049020462946FFF736FB7E89204643
:101FA0002946FFF731FBFFF7A7FB0546FFF7C0FB0C
:101FB0001EA908703C4638460E300599471804990A
:101FC0004118019180190590FFF7B2FB0390FFF7CC
:101FD000AFFB0606009703D016A8FFF75BFB03E0F4
:101FE00000202021FFF710FB27462C46052080010A
:101FF000029038580128049617D1B878022814D1D5
:10200000172080013E182024304601992246FEF711
:1020100045F93046059922462C46FEF73FF91EA9A0
:1020200001223046049EFEF739F9002E08D00398AD
:1020300000060BD00EA816AA0599FEF716FD09E0BA
:102040000EA80021202201F09BFD03E00EA816A996
:10205000FEF7F4FB029D1EA80078002805D0512051
:1020600080003A1806A800990BE01FAA16A9002EB6
:10207000104600D008460399090600D0024606A87B
:102080000199FEF709FC1FA806A92246FEF714FCD9
:102090007859012809D1B878022806D11720800183
:1020A00038181FA92022FEF7F9F816AE06A9304607
:1020B0002246059BFEF77EFC0020FFF70FFA1FA8C3
:1020C00020242146FFF74AFA30462146FFF732FA2C
:1020D0000498002803D00EA82021FFF72BFA09202E
:1020E000000327B0F0BDC046301900208CB0002797
:1020F0003C460BA807806E46304604F057FC3085FE
:1021000086B2002E16D005466846002101850120C2
:10211000FFF7E4F90F2004032C4000F045FD0320F5
:102120004003844203D00920000384420DD10BA850
:10213000058010E0684601F044FC2046FFF70AFBEA
:10214000FEF7AEFF0BA9088005E03046FFF72AFA3C
:102150000BA80D49018001F0EFFD6946884203D1CB
:1021600001F0ECFD01F02DFC0BA8008810240028E4
:1021700004D00BA80088FFF729FA00246846008DD8
:102180000028B6D001F0D4FD426F0000F0B585B054
:1021900002F010FEEA4F3978EA4D0C29049051DC28
:1021A000052900D199E00C2900D022E1E64E002457
:1021B000F461012030763046183002F027FEF061DD
:1021C00002F0D2FBF069E14DA84200D133E20028D1
:1021D00000D130E2FC49884200D0B9E101F0FEFEB6
:1021E00001F002FFB4603068002800D123E2F069FA
:1021F000A84200D11FE2002800D11CE20020716833
:10220000884200D317E202F05BFE002800D012E201
:10221000B068F1683824604332681018002902D091
:102220008847002807D0012803D1B06844433068AC
:10223000001901F019FAB068401CB060316800293B
:10224000DDD1F8E10D2900D193E00E2900D0D0E0D6
:10225000DE4E0024F461012030763046183002F062
:10226000D5FDF06102F080FBF769AF4200D004E1D8
:1022700001F0B4FE01F0B8FEB4603068002800D16F
:10228000D9E1F069D249884200D1D4E1002800D1D7
:10229000D1E100207168884200D3CCE102F010FE49
:1022A000002800D0C7E1B068F16838246043326884
:1022B0001018002902D08847002807D0012803D130
:1022C000B06844433068001901F0CEF9B068401C92
:1022D000B06031680029DDD1ADE1BC4E0024F4616D
:1022E000012030763046183002F090FDF06102F0A7
:1022F0003BFBF069B64DA84200D19CE1002800D11B
:1023000099E1B149884200D064E101F067FE01F033
:102310006BFEB4603068002800D18CE1F069A842FF
:1023200000D188E1002800D185E100207168884251
:1023300000D380E102F0C4FD002800D07BE1B0684A
:10234000F1683824604332681018002902D08847A9
:10235000002807D0012803D1B06844433068001931
:1023600001F082F9B068401CB06031680029DDD10D
:1023700061E1F04E0024F4610120307630461830DF
:1023800002F044FDF06102F0EFFAF069EA4DA84274
:1023900000D150E1E649884200D160E1002800D137
:1023A00049E13068002800D13FE1B0687168884297
:1023B00000D33AE102F084FD002800D035E1B06896
:1023C000F1683824604332681018002902D0884729
:1023D000002807D0012803D1B068444330680019B1
:1023E00001F042F9B068401CB06031680029DDD1CD
:1023F0001BE1D04E0024F4610120307630461830C5
:1024000002F004FDF06102F0AFFAF069A8426FD16A
:1024100001F0E4FD01F0E8FDB4603068002800D16F
:1024200009E1F069C449884200D104E1002800D1E3
:1024300001E100207168884200D3FCE002F040FD19
:10244000002800D0F7E0B068F168382460433268B3
:102450001018002902D08847002807D0012803D18E
:10246000B06844433068001901F0FEF8B068401CC1
:10247000B06031680029DDD1DDE07069002808D046
:1024800064216428024600D30A46801A706100D194
:1024900014E1A948874200D1CDE0002F00D1CAE065
:1024A0003068002800D1C0E0B0687168884200D36D
:1024B000BBE002F005FD002800D0B6E0B068F1688E
:1024C0003824604332681018002902D08847002859
:1024D00007D0012803D1B06844433068001901F0E7
:1024E000C3F8B068401CB06031680029DDD19CE0C1
:1024F0003068002800D198E0B0687168884200D345
:1025000093E002F0DDFC002800D08EE0B068F168B6
:102510003824604332681018002902D08847002808
:1025200007D0012803D1B06844433068001901F096
:102530009BF8B068401CB06031680029DDD174E0C0
:1025400000180020555010B080180020445010B0E2
:10255000B088039030680290FB79BC797A793D7934
:10256000FF78F1686846076041602802801882B2EF
:102570002002C01883B20298039901F0ADFD3068C3
:10258000002852D0B068716888424ED202F098FCA0
:1025900000284AD1B068F1683824604332681018C6
:1025A000002902D08847002807D0012803D1B0684D
:1025B00044433068001901F057F8B068401CB0601F
:1025C00031680029DFD130E0555010B0801800206C
:1025D000445010B03069002803D0F978490801F060
:1025E00089FE3068002820D0B068716888421CD20B
:1025F00002F066FC002818D1B068F1683824604306
:1026000032681018002902D08847002807D0012816
:1026100003D1B06844433068001901F025F8B06870
:10262000401CB06031680029DFD17068B168814218
:1026300001D302F045FC02F043FC002801D101F077
:1026400083FB3B4C443C02F0B5FB0499814203D030
:10265000A04201D1FEF76EFE012005B0F0BD01F0F1
:10266000BDFC01F0C1FCB46030680028E3D0F06923
:10267000A842E0D00028DED0002071688842DAD27B
:1026800002F01EFC0028D6D1B068F16838246043FF
:1026900032681018002902D08847002807D0012886
:1026A00003D1B06844433068001900F0DDFFB06822
:1026B000401CB06031680029DFD1BCE71E4DAF423D
:1026C000B9D0002FB7D001F089FC01F08DFCB460C7
:1026D0003068002800D1DCE6F069A84200D1D8E6D5
:1026E000002800D1D5E600207168884200D3D0E6EA
:1026F00002F0E6FB002800D0CBE6B068F168382491
:10270000604332681018002902D08847002807D09B
:10271000012803D1B06844433068001900F0A4FFD9
:10272000B068401CB06031680029DDD1B1E6C04618
:10273000555010B080180020445010B0B0B5054678
:10274000072028400024012814D0022814D1002991
:1027500009D00B4802F09EFB68B200280ADA02F0AA
:1027600033F9002406E0FF2152310548002202F02F
:10277000BDFB04462046B0BD022001F0D9FAC04698
:102780006C21002010B58CB001AC204604F00EF98D
:102790002085000406D101A801F013F90020C043F0
:1027A00002F01EFB01F0C8FA01A9884203D101F032
:1027B000C5FA01F006F901A8008D002801D10CB07E
:1027C00010BD01F0B5FA000070B5A0B0314C208901
:1027D00002280ED318A82021FEF716FF4F208000F4
:1027E000205C40061ED410A820242146FEF728FFB6
:1027F0001DE00120FEF772FE08AD20242846214688
:10280000FDF784FD28462946FDF7BEFD28462146F2
:10281000FEF7A4FE6E4630462946FEF70FF8304616
:10282000214630E010A820242146FEF7EDFE0120CD
:10283000FEF754FE08AD28462146FDF767FD284601
:102840002946FDF7A1FD28462146FEF787FE6E4684
:1028500030462946FDF7F2FF30462146FEF76AFE74
:102860006C4618AD08AA20462946FEF7FEF8202639
:1028700020463146FEF75EFE10AA20462946FEF7A6
:10288000F4F820463146FEF755FE0920000320B03B
:1028900070BDC0463019002070B590B01E4E7079E2
:1028A00001280CD17B20C0003018FDF7F1FC0B2073
:1028B000C001311808A8202201F06BF903E008A834
:1028C0002021FEF7A1FE0120FEF708FE7B20C000BC
:1028D000351808A920222846FDF7E0FC4F2080008B
:1028E000305C000614D46C4628462146FDF7E2FC15
:1028F00020462146FDF748FD202520462946FEF7C3
:1029000019FE2D204001301821462A4601F041F9D8
:102910000920000310B070BD30190020F0B5A1B03F
:1029200005208701234DE85901280BD002283DD10D
:1029300019A820242146FEF767FE11A82146FEF7BC
:1029400063FE08E019A820242146FEF779FE11A8AD
:102950002146FEF775FE0120FEF7C0FD2D20400147
:10296000291809AC2046FDF70FFD19AD2846294668
:10297000FDF70AFD204621462A46FEF73DFA11AD35
:1029800028462946FDF700FD01AE3046294622467D
:10299000FEF700FA20213046FEF7CCFD0548C0596D
:1029A000FEF700FE0920000321B0F0BDD520C001D4
:1029B00001F0BEF930190020F0B599B01C46049220
:1029C00005910690324801F0D1FF007A002807D027
:1029D000022805D001280AD1002C07D0304906E092
:1029E000002C01D02C4902E02A4900E02B4907AE17
:1029F0003046FDF78FFC0546341820272046049901
:102A00003A4601F0C6F82046203005993A4601F0D2
:102A1000C0F80B200390C00122490F1868460760D8
:102A20002320000109182B46403306203246FDF7CB
:102A30004DFC403404222046394601F0AAF84435C2
:102A400007212846029108400490E80805900CD020
:102A500007AC059E069F082120463A4600F024F860
:102A60000834761E0B37002EF5D1049B002B0BD0BB
:102A70000298854307A84019039A05994A43069985
:102A80008A18194600F010F8002019B0F0BDC046B1
:102A9000C07ED0C067280000682C00001D5B0000CD
:102AA0001C64000030190020F0B585B009235C1AC1
:102AB00000263346042C06DC022C0BDC012C13D040
:102AC000022C16D069E0062C09DC052C26D0062C39
:102AD0002BD062E0032C13D0042C18D05DE0072C1F
:102AE0002AD0082C2FD058E0441C0078030200267E
:102AF000204604781C43230E3502EE182302401CA6
:102B000004781C43230E3502EE182302401C04787F
:102B10001C43230E3502EE182302401C04781C438C
:102B2000230E3502EE182302401C04781C43230EAA
:102B30003502EE182302401C04781C43230E350294
:102B4000EE182302401C05781D4328463043002818
:102B500023D088001249794408581018471E11489C
:102B6000784401903A2431460496002628462246AD
:102B7000334603F04FFD039002912246334603F0A3
:102B800069FD281A0199085C38707F1E3920401BA6
:102B900004988641039D029EE4D305B0F0BDC04673
:102BA0006A4500002445000070B521200001134E45
:102BB00030180024202521462A4600F0E1FF1F207E
:102BC0000001301821462A4600F0DAFF7B25E80094
:102BD0003018FDF75DFB0A483018FDF7ACFB1720F5
:102BE00080013018FDF7A7FBA80034503D20C0003D
:102BF000315CFD220A40325470BDC04630190020BD
:102C00004C060000F0B581B0FEF776FD0120FEF71E
:102C100065FCFFF7C9FF21200001124F3C18202559
:102C200020462946FDF772FB20462146FDF7ACFB06
:102C30001F2000013E1830462146FDF7FFFD3046BB
:102C40002946FEF777FC20462946FEF787FC3D2003
:102C5000C000395C02220A433A540920000301B043
:102C6000F0BDC0463019002080B50120FEF736FCCB
:102C7000FFF79AFF3D20C00003490A5CFD23134083
:102C80000B540920000380BD3019002080B5FFF7E8
:102C90008BFF002080BD000070B5052085010B4E24
:102CA00002207051FEF744FD04460020FEF716FC9A
:102CB000601E022806D274512046FEF773FC0920DC
:102CC000000370BDD520C00101F032F8301900209A
:102CD00070B505208601224DA859012816D16879C2
:102CE000012813D11F482918172080012C182046CD
:102CF000FDF7E0FA2046FDF71EFB1B482818FDF7FC
:102D00001AFB7B20C0002818FDF7C2FA7B20C00008
:102D1000281869892A89521A69180E31FDF7BEFAF6
:102D2000A859012815D16879012812D1FEF700FDB4
:102D3000F520C0002918688928180E300F22FEF7E8
:102D40003FF90120FEF7CAFB0024204600F08CFA70
:102D500004E00120FEF7C2FB09200403204670BDF9
:102D6000301900202C0600004C060000F0B5AFB072
:102D7000FEF7DEFC01907A4CA1780020022901D1F7
:102D8000FEF7D6FC2EA9087066890024202520466F
:102D90002946FEF739FC7248478920462946FEF746
:102DA00033FC26A82946FEF74BFC1EA82946FEF751
:102DB0002BFC0EA82946FEF727FC16A82946FEF78D
:102DC00023FC02942046664CFEF788FB20460E301A
:102DD00081190391C01904904F208000059020585C
:102DE00003263040022805D17B20C000201816A9F8
:102DF00008220BE07B20C00025180EA920272846BA
:102E00003A46FDF74BFA16A928463A46FDF746FA28
:102E100005208001205809210F03012800D094E0EB
:102E20002EA80078002808D1E920C00020180199B8
:102E3000CBB20399049AFFF7BFFDA078022819D1FD
:102E400017208001251801972027284603993A4624
:102E5000FDF724FA284604993A46FDF71FFA2EA9F1
:102E600001222846FDF71AFA26A928463A46019F6C
:102E7000FDF714FA05982358334016AD0EAE26AA76
:102E800028463146FDF73AF906A83146FDF7D6FC4B
:102E90002021284601F0B8FE002805D026A806A962
:102EA000202200F076FE09E026AD16A92846FDF79F
:102EB000C5FE06A928462A46FDF78FFD1EA826A9AD
:102EC000202200F021FF002842D1274826181EA901
:102ED00020223046FDF7E2F90598205C00061AD45E
:102EE000A07802280ED11720800120180EAD2946A7
:102EF000FDF7E0F91D4821182022284600F004FFC4
:102F0000002828D1D720C00021183046FDF7D2F97B
:102F10003046FDF710FA16A8FEF713F802460A43EA
:102F2000002A12D0F522D200A2180F23FDF796FF37
:102F30002EA80078002804D0029F384600F0A2F99D
:102F400003E00027384600F0C9FA38462FB0F0BD3C
:102F5000044800F0EDFE0348C01C00F0E9FEC04646
:102F600030190020116900004C0600002C060000FA
:102F7000F0B599B04F208000324E305C000643D44B
:102F800005208001305801280ED12F48301801AC9F
:102F90002146FDF78FF9D720C000311820222046A6
:102FA00000F0B2FE002849D17B20C000341801A9EE
:102FB00000912046FDF77EF911AD202628463146C6
:102FC000FEF722FB09AF38463146FEF71DFB012014
:102FD000FEF784FA2046FDF75BF920462946324683
:102FE000FDF75CF9204600993246FDF757F9204677
:102FF00039463246FDF752F90B20C0011149091834
:103000002046FDF757F915E001AC2025204629465A
:10301000FEF7FAFA0120FEF761FA7B20C0003018B3
:1030200021462A46FDF73AF90748301821462A4634
:10303000FDF734F90920000319B0F0BD034800F092
:1030400077FEC046301900204C06000013690000CE
:10305000F0B5A5B0434D6889039000242026204692
:103060003146FEF7D1FA20463146FEF7CDFA68899F
:10307000029020463146FEF7C7FA68890190204643
:103080003146FEF7C1FA6F8920463146FEF7BCFA99
:103090001DA8FEF7FFFA2046FEF720FAFB20C0002D
:1030A0002C1820463146FDF731F92046049421467C
:1030B000FDF76AF9DB20C00028182C460E3403996E
:1030C00061180390324600F064FDDF20C00028182C
:1030D000E119324600F05DFD029824184F2080006F
:1030E000285CC00704D115A80499FDF7A7FB06E0EA
:1030F000019829180E3115A8049AFDF7B6FCE320B3
:10310000C000281815AF20263946324600F041FD90
:1031100038462146049AFDF7A8FCE720C00028188D
:103120003946324600F035FD0DAD80222846039920
:10313000FDF706F91DAA38462946FDF75DFE05ACE8
:10314000204604993A46FDF725FE28463146FEF70B
:10315000F1F920463146FEF7EDF90920000325B0CC
:10316000F0BDC04630190020F0B59DB015AF20214C
:1031700001913846FEF748FA0DAE3046FEF78AFA5E
:1031800002A80821FEF740FA00242046FEF7A6F91F
:1031900004AD284639463246FDF77EFB8D20019965
:1031A000685468460660232000010C49091806206F
:1031B00021232A46FDF78AF802A8015D0DAA125DB7
:1031C0004A400255641C082CF6D102A80821FEF7DB
:1031D000B1F9092000031DB0F0BDC0463019002030
:1031E00080B5014609200003094A914202D0FFF749
:1031F0004DFD0848FEF7EAF92020FEF7ABFA002063
:1032000005497944054A7A4401F020FB80BDC04657
:10321000CEAC000082690000564800000F07000095
:10322000094A7A44904203D0084A7A44904207D12E
:103230004878222804D1F520C000024A1018C8613D
:10324000084670473019002072400000DA40000044
:1032500080B503497944034A7A4401F0F7FA80BD06
:1032600004480000BD06000080B5002003497944F1
:10327000034A7A4401F0EAFA80BDC04626400000C5
:10328000ABFFFFFF80B5002003497944034A7A442D
:1032900001F0DCFA80BDC0467A4000008FFFFFFFDE
:1032A00080B5012002497944002201F0CFFA80BDA7
:1032B000BA45000080B5FEF78BFA00200349794437
:1032C000034A7A4401F0C2FA80BDC0469A47000022
:1032D00053060000B0B50C46816818291AD8054677
:1032E0006078212809D10C4801F040FBA96814221C
:1032F0004A4380184A30E061607822280AD11729B1
:1033000008D8054801F032FBA96814224A43801806
:103310005E30E0612046B0BDC07ED0C080B50020E8
:1033200003497944034A7A4401F090FA80BDC046CB
:1033300052400000ABFFFFFF80B5014609200003AB
:10334000094A914202D0FFF7A1FC0848FEF73EF976
:103350002020FEF7FFF9002005497944054A7A4408
:1033600001F074FA80BDC046CEAC00008269000056
:10337000FE460000B7050000F0B581B00C46564986
:10338000794488422DD00A461C32904231D00A46F8
:103390003832904242D00A465432904255D00A46C2
:1033A0007032904268D08C31884200D081E0DB20BE
:1033B000C600414FBD1900217022284600F0E0FBF5
:1033C0006078212806D13D4839180B22284600F0A4
:1033D000E0FB607822286AD13D204001391807229D
:1033E00062E06078222864D1F520C00032490818D4
:1033F0005EE0607822285CD1DB20C0002E4E3518BC
:1034000000217022284600F0BBFBE920C0003118E3
:103410000B22284600F0BDFBE5614AE0DB20C60038
:10342000254FBD1900217022284600F0A9FB6078C5
:10343000212806D1264839180B22284600F0A9FB7E
:103440006078222833D123482CE0DB20C6001A4FB5
:10345000BD1900217022284600F092FB60782128D7
:1034600006D1194839180B22284600F092FB6078E3
:1034700022281CD1154815E0DB20C6000E4FBD19CF
:1034800000217022284600F07BFB6078212806D1BD
:103490000B4839180B22284600F07BFB6078222865
:1034A00005D1084839180B22284600F072FBB819DC
:1034B000E061204601B0F0BD301900209507000002
:1034C0007F0700008A0700006907000074070000FA
:1034D000530700005E0700009841000080B50020FF
:1034E00003497944034A7A4401F0B0F980BDC046EB
:1034F000364000008FFEFFFFB0B5234C0520244965
:103500007944216060602348784423497944E1602C
:103510002061032020760025E5612046183001F067
:1035200075FCE06101F020FA00F058FD00F05CFD50
:10353000A5602068002826D0E0691449884222D07E
:10354000002820D00020616888421CD201F0B8FC1D
:10355000002818D1A068E16838256843226810184F
:10356000002902D08847002807D0012803D1A0688D
:1035700045432068401900F07BFEA068401CA06015
:1035800021680029DFD1B0BD80180020445010B060
:103590001441000091000000F9000000B0B588B0AF
:1035A000044600252846FDF799FF68462022294653
:1035B00000F0E6FA0F48844204D00F48844216D146
:1035C000684603E0512080000C4908182021FDF7CF
:1035D000B1FF09200003FDF7F9FF2020FEF7BAF83C
:1035E000002007497944074A7A4401F02FF9002066
:1035F00008B0B0BD0200008001000080301900203A
:10360000744400002D03000010B5407802280BD050
:10361000012814D1DB20C0000F4908180F49794454
:10362000072203F033F914E0DB20C0000A49081830
:103630000B4979440CC90CC00978017009E0DB2002
:10364000C00005490818074979441CC91CC00988ED
:103650000180012010BDC04630190020413B000010
:10366000FA400000F040000080B500F001FE80BD8F
:1036700080B5C0B2FDF72EFEFDF708FE002003491D
:103680007944034A7A4401F0E1F880BDD843000050
:1036900091020000F0B581B00C460646DB20C00068
:1036A000204F3D1800217022284600F069FA20487A
:1036B0007844014638318E4212D0014654318E4250
:1036C0001AD0703086422AD16078202827D1164837
:1036D00001F04CF9007A002821D11849794416E00C
:1036E000607820281BD1104801F040F9007A0128A9
:1036F00015D1104979440AE0607820280FD10A4892
:1037000001F034F9007A022809D10B4979440E22DC
:10371000284600F03EFA05482B213954E561204641
:1037200001B0F0BD30190020C07ED0C0E506000019
:1037300098400000C03A0000B73A0000F63A000096
:1037400080B503497944034A7A4401F07FF880BD8B
:103750000440000049FFFFFF10B582B0002401942F
:10376000084801F003F901A9042201F041F9FDF72D
:103770008DFD05497944054A7A44204601F066F8F2
:1037800002B010BDC07ED0C0E44200009D01000028
:10379000F0B581B00C4650497944884228D00A4699
:1037A0001C32904239D00A46383290424CD00A46F8
:1037B000543290425FD07031884279D1DB20C6000C
:1037C0003D4FBD1900217022284600F0D9F96078DC
:1037D000212806D1394839180B22284600F0D9F99A
:1037E0006078222862D13D204001391807225AE032
:1037F000607822285CD1DB20C0002F4E35180021D4
:103800007022284600F0BCF9E920C00031180B22D4
:10381000284600F0BEF9E5614AE0DB20C600264FED
:10382000BD1900217022284600F0AAF960782128ED
:1038300006D1274839180B22284600F0AAF96078EB
:10384000222833D123482CE0DB20C6001A4FBD19B3
:1038500000217022284600F093F96078212806D1D3
:10386000194839180B22284600F093F9607822286D
:103870001CD1164815E0DB20C6000F4FBD190021F2
:103880007022284600F07CF96078212806D10C4887
:1038900039180B22284600F07CF96078222805D1DF
:1038A000084839180B22284600F073F9B819E0616E
:1038B000204601B0F0BDC046301900209507000039
:1038C0007F0700008A0700006907000074070000F6
:1038D000530700005E070000FC41000010B50446DD
:1038E000E920C000094A101859218900511869239C
:1038F0009B00D2180023FFF75FF805497944054A79
:103900007A44204600F0A2FF10BDC04630190020C6
:10391000984000008DFEFFFFF0B581B00C461C49B9
:103920007944884226D16078222823D1DB20C00048
:10393000124F3D18002670222846314600F020F92B
:10394000592080003918692080003A1828463346EB
:10395000FFF732F80A4838182E21022200F010F939
:103960000848381808497918052200F012F9074864
:103970003E54E561204601B0F0BDC046301900203C
:10398000DD060000DF06000032070000E40600004C
:103990003841000080B5002006497944064A7A443F
:1039A00000F054FF7D20C0000149486180BDC04641
:1039B00080180020BE40000077FFFFFF00208146F6
:1039C0007047814670470000F0B581B00646654FEC
:1039D000B94238D00D461446009640263846314646
:1039E00002F04EFF402C224600D33446BD4217D28F
:1039F000002C009E27D04020C14308464030831A47
:103A00008B4200D80B463F31CC1A2919554D2C1941
:103A10005B1C0D782570091824185B1CF9D112E085
:103A2000002C009E0FD04020C04301464031891A2F
:103A3000814200D80146481C29783970401C7F1CFF
:103A40006D1C0028F8D1474DA87801280ADC002811
:103A500030D001287AD1E81C042100F0DFFF40219A
:103A6000284632E002282ED005286FD12879E9783F
:103A7000090208183C4E3168002788426CD1501F5B
:103A80003168002924D081B2384A13688B4201D2B0
:103A9000106881B2364A12686B1D9A423FD90023E2
:103AA000040447D0413A40326B181B795354491EE5
:103AB000FAD13EE00027AF716F712F71EF70402196
:103AC0002846B04748E027484021B047002743E058
:103AD000A87969790902091826480160016849082E
:103AE000A82939D801682148016069782B781B0220
:103AF0005918214B19601E49204B0B60D41FA2B2EC
:103B00000168914201D20468A2B2E91D8B420023F0
:103B100020040FD0194802F0B9FE23460AE0002322
:103B2000040407D06B1D1C781470521C5B1C491ECA
:103B3000F9D1034698B20D490A68121A0A600C4975
:103B40000A68101808603068401C30600748016837
:103B500001200227002903D10348002101603846D3
:103B600001B0F0BD702300206021002068210020FA
:103B7000C022002064210020C42200206C210020EB
:103B800080B5002A04D00B4611461A4602F082FE88
:103B900080BDB0B5884208D9002A0FD0491E401E0A
:103BA0008B5C8354521EFBD108E0002A06D0002310
:103BB0009CB20D5D05555B1C521EF9D1B0BD0000D5
:103BC000014800210160704760210020F0B581B0FC
:103BD0003A4F396800292BD00090394C661D3925A1
:103BE0003046294602F04CFE0520A0703548016899
:103BF000090A21700068607033480168090AE170A1
:103C00000168217102683968002A19D03B253B29D7
:103C100000D83D682D480168B14228D2002D3DD022
:103C20004A1E2B46D05CE61830715B1EFAD135E097
:103C300025480021016025480160254801703BE0CE
:103C4000392900D83D683968090A61713968A1715C
:103C50001E490968E21D914215D2002D1ED04A1E50
:103C60002B46D65CE01886715B1EFAD116E0002D5B
:103C700014D000222B4690B20E5C20184671521CC4
:103C80005B1EF8D10AE0002D08D000222B4690B22E
:103C90000E5C2018C671521C5B1EF8D14919009A9F
:103CA000094B3868401B3860084801601868401CA0
:103CB000186003484021904701B0F0BD6821002002
:103CC00070230020C422002060210020C022002098
:103CD000DC22002080B500290BD0064A00231360A7
:103CE000054A1160054A064B1360064A1160FFF74A
:103CF0006DFF80BD6021002068210020C0220020CF
:103D00006C2100206421002070B5401E491E541E05
:103D10000023002A0AD08D5C865CAE422246F6D093
:103D20000020C0430123AE4200D80346D8B270BD84
:103D30000146484602F046FE484670470020494684
:103D4000002900D04869704780B501F0B9F8002813
:103D500000D080BD0648002141706022027002221E
:103D60008270C1700171052101F094F880BDC046D8
:103D70000018002010B51948C078032807DC012876
:103D80000DD0022826D1164801F03BFF10BD0428B3
:103D90001DD008281ED1124801F031FF10BD104C73
:103DA0000121204601F026FF204601F004FF0D48C6
:103DB000007800280FD10C48002406222146FFF786
:103DC000DFFE0A480C222146FFF7DAFE10BD044848
:103DD00001F013FF10BD1020FFF7AAFF001800200C
:103DE000B8230020C8220020C9220020D0220020B1
:103DF0007F2101400148405C7047C046C922002035
:103E000010B514480179042916D0022906D00129D9
:103E10001ED1811D114801F0D4FD10BDC2787F2153
:103E20001140052914D84A000D4B00249C52821DD4
:103E30000A4801F04CFE10BDC2787F2111400529CF
:103E400006D84279044B5A54821D044801F0E7FD1C
:103E500010BDC04600180020C9220020B823002051
:103E6000D022002070B5FF2A1DD815460E46044604
:103E70000D4850210170202101714271D11C8170C7
:103E800080222243C270090A4170062101F002F823
:103E90003046294600F0FEFF7F20204040007D2173
:103EA0000901024A115270BD00180020D0220020E2
:103EB00080B50A46014682201423FFF7D3FF80BD58
:103EC00080B50E480178002900D080BD0C4906223B
:103ED0000A700A2101700B48817842781202511849
:103EE000FF225232914200D31146074A11801288B4
:103EF000C11C0648FFF74DFE80BDC046DC220020F5
:103F0000C822002000180020DE2200206C210020A2
:103F100010B51F48817842781202511800780F2896
:103F20000ADC0E2810D00F2820D10020012924D12E
:103F3000FFF720FF012010BD10281BD0162815D137
:103F4000FFF7BEFF012010BD0A211248425A002A85
:103F500008D06423642A144600D31C46121B425224
:103F600012040FD08A1E00291146EFD10220FEF75D
:103F70000DF910BD0020032900D210BDFFF740FF4E
:103F8000012010BD0448002101701020FFF7D0FE71
:103F900000180020D0220020DC22002010B50920CB
:103FA00000F0FCFC07480024047007480480074820
:103FB0000470FFF705FE06480460064804600648E2
:103FC000046010BDDC220020DE220020C822002078
:103FD000E0220020E4220020E82200200148002105
:103FE00001607047E0220020024800210160024881
:103FF00001607047E4220020E8220020B0B50D46A1
:104000000446006B00280BD000F0B0FC01462046AF
:10401000884700F0ABFC00280FD0012800D00446F0
:10402000002D06D02046A847002806D0012800D041
:1040300004462046FFF718FB0120B0BDB0B58EB096
:104040000D460446406B00280BD000F08FFC014663
:104050002046884700F08AFC00281AD0012800D0AA
:104060000446002D07D02046A8476C46002810D0F3
:10407000012800D004466D46382228462146FFF725
:1040800088FD606AA16A049005912846FFF7ECFA62
:1040900001200EB0B0BDB0B50D460446C06A002880
:1040A0000BD000F063FC01462046884700F05EFC20
:1040B00000280FD0012800D00446002D06D020464D
:1040C000A847002806D0012800D004462046FFF764
:1040D000CBFA0120B0BD0000F0B587B00293039287
:1040E0000591002976D004900D9801900C980090CD
:1040F00000253C4B06952F461E4600F0E1FE0028A9
:1041000055D138206843049C251833463268012174
:10411000954200D0069906912056002841DA2020C9
:10412000285C0221695E0A1A039CA24239DC41180C
:10413000EA888918039A914233DD04216C5E221AC1
:1041400002998A422DDC2018298940180299884258
:1041500027DD1868854210D0186800280DD0019816
:10416000002805D02846019988473346002818D0F2
:1041700018680199FFF742FF08E00098012809D06C
:1041800002280ED128460199FFF785FF3346002803
:1041900007D021E028460199FFF750FF3346002859
:1041A0001DD17F1CFDB205988542A5D300E03346A2
:1041B000069800060ED0186800280BD000F080FE8C
:1041C000002807D130680199FFF718FF002801D0B7
:1041D0000020306007B0F0BD00201860FAE71D60D5
:1041E000F8E7C046E0220020F0B589B00C46014651
:1041F00002AD1C2228460192FFF7CBFC06CC2068BA
:10420000E9802A81194F65233B7089B292B24A43F3
:1042100042435307D1084A1C083C002B00D10A46F0
:10422000009204268640B0181D30B870000A7870DD
:104230000321384600F02EFE2846019900F02AFEA0
:10424000A06838700121384600F024FEE06800F0D4
:104250008DFBB1B200F01EFE009885B2206900F01F
:1042600085FB294600F016FE09B0F0BD00180020BD
:1042700070B5044600787F26064000F021FE002835
:1042800030D1002E2ED0E06900281DD000F06EFB4A
:104290000546052E02D1A07E002824D0284602F033
:1042A0009FFB064612486521017031461C31817022
:1042B000090A4170032100F0EDFD1C21204600F0A9
:1042C000E9FDB1B228460BE00948002141706521A3
:1042D00001701C258570032100F0DCFD2046294675
:1042E00000F0D8FD70BD20462946FFF77DFF70BD68
:1042F0000018002070B500282DD00446164802682A
:104300008A4203D1154A13685B1C136006680E438A
:10431000124A1568002901D0066005E000230360F9
:1043200013600F4B5B1C1E430068884201D00020C5
:104330001060082D0CD30321284602F059F9012200
:1043400090073043002900D03046D107884300E071
:1043500030462946A04770BDE4220020E822002014
:10436000FFFFFF7FF0B581B00F4E01243470B11C08
:10437000FF2750377A1C204600F074FD0546707008
:104380003A1A3718F91C022000F06CFDB8702D188D
:104390007619F47000F050FD30719020707100209B
:1043A000B071E81D01B0F0BD6C210020F0B585B002
:1043B0000B460146400707D00A46D0B299B2FEF735
:1043C000BDF980B205B0F0BD802001906C4F724EF7
:1043D0006F4C0A460392102008409DB2002D75D004
:1043E000002873D102903878082804911ADD092832
:1043F00020D00A2843D11846644908404008A9281B
:1044000000D3BAE053202070A370180A6070032113
:10441000204600F03FFD5B48294600F03BFD0020B0
:1044200038703DE0072828D15C4878442946FFF7DA
:1044300051FC35E0E81D4008A92800D39DE0019813
:10444000103050494855481900254570481D991CA1
:104450008AB24C490093FFF79CFB05224948294644
:10446000FFF78EFB0198C01CC1B20098C01D83B23B
:104470004548444A01F0F2F812E000287AD0039847
:10448000C0B22946FEF75AF9002809D072E0FFF7BA
:104490005BFC80210022204600F028FDFFF738FD5C
:1044A00038780028F3D1002038703A4908703080FD
:1044B0000499890685D4FFF747FC049908060298F9
:1044C00004D5012000F08CFC02980499002805D145
:1044D00048064CD4002038702E49087000203080E7
:1044E00000F0EEFC002801D1FFF72EFC8021002512
:1044F00020462A4600F0FAFC022806D8A178627805
:1045000012025118C01E884208D1FFF701FD387809
:104510000028E5D030880028E2D002E00020387082
:10452000DDE71F49794404221648FFF7EDFB002818
:1045300012D01C49794404221248FFF7E5FB0028F9
:1045400013D110480246457001990846103010708A
:10455000039A0A43022303E0FFF704FF0346002205
:10456000D1B2500700D135E727E7308829E73088F6
:10457000401F26E70920FFF7DBFB0220FFF7D8FBEF
:10458000DC2200206C210020EC220020FEFF000035
:1045900000180020C8220020DE22002083FAFFFF3E
:1045A000C0350000B5350000F0B581B007465D4C60
:1045B00025461435382228463946FFF7EAFA21699C
:1045C000A068002903D088470346A06803E01C21A7
:1045D0004143226853180026002810D02269411E4A
:1045E000002A0FD00846009737462E461D469047B2
:1045F0002B4635463E46009F0246A06806E0304600
:10460000324603E01C224A4321688A186168491E29
:10461000884210D22169401C002908D000951D460F
:104620001646884732462B46009D064603E01C216D
:10463000414320684618787840280ADC202821DC8D
:10464000102832D0202862D159690020002966D173
:104650004EE0802820DC412830D0422857D15969CB
:10466000002000295BD1D968002958D16268511E09
:10467000012A54D0A2688A4251D0F16800294ED153
:1046800030692FE021282FD0222840D159690020FD
:10469000002944D021632DE0822832D0812836D1F0
:1046A000A1680020002932D139E0D9680020002912
:1046B00035D02163587E002821D128E05969002097
:1046C00000292CD1D968002929D1A168002926D038
:1046D0006168012923D0D168002920D151690029BE
:1046E0001DD11069206312E059690020002916D0FD
:1046F00018692063187E002809D00821A185E0826E
:1047000005E06068A168421E0020914207D0E2687F
:10471000002A284603D0143418462146904701B099
:10472000F0BDC04624230020F0B581B005463C4FC3
:104730003969B868002902D08847064603E01C2181
:1047400041433868461801243648854214DD36480E
:10475000854216D0354885421BD0354885425CD10C
:104760003068002850D0B46800F000F90146FA68BB
:10477000204600F06BF84FE02E498D4209D085426B
:104780004BD17968B868491E0024884245D2401C44
:1047900004E0B868002400283FD0401E26490024C9
:1047A0000C60B86025480460254DAC602548046065
:1047B0002868002831D0E869234988422DD0002894
:1047C0002BD0002420466968884226D200F078FB6E
:1047D000002822D1A868E968382670432A68101892
:1047E000002902D08847002807D0012803D1A868F3
:1047F000464328688019FEF737FFA868401CA86068
:1048000029680029DFD108E07068002805D000F091
:10481000ADF80146B06888470024204601B0F0BDDD
:10482000242300200200008002000040010000401C
:104830000300008001000080E0220020E42200202C
:1048400080180020E8220020445010B0F0B583B05A
:1048500002920D460190394E0020009070600029B0
:1048600015D03C4979441C2728463A46FFF74CFAB4
:1048700000280CD0384C7C447068401C7060784331
:10488000281821463A46FFF73FFA0028F4D101994B
:10489000481C05D070688842009800D30846B06074
:1048A000356000250298F0603561254C2B4878442E
:1048B000092103C42A4878442A4979446160A060E8
:1048C000032020746561083C2046183000F09EFAF1
:1048D000E06100F049F81B4805601B480560A560D1
:1048E0001A4805602068002826D0E06918498842E7
:1048F00022D0002820D00020616888421CD200F01D
:10490000DFFA002818D1A068E168382568432268DA
:104910001018002902D08847002807D0012803D1A9
:10492000A068454320684019FEF79EFEA068401C21
:10493000A06021680029DFD103B0F0BD242300204E
:1049400080180020E0220020E4220020E82200203D
:10495000445010B084340000723400004232000031
:104960006FFEFFFFEBFCFFFF7047000080B50449BE
:10497000884204D30349884201D200F005F880BD83
:104980000000D0C04081D0C07A460249C91C891AB3
:10499000401A70478949D0C001DF704780B582B0A6
:1049A000009007486946FFF7F7FF01AA1160054923
:1049B000884201D102B080BD0420FFF7B9F9C0469A
:1049C00037010060C601009080B582B0064801A999
:1049D000FFF7E2FF6A4611600449884201D102B044
:1049E00080BD0420FFF7A4F900020060F1020090EE
:1049F00080B584B000AB07C306486946FFF7CCFF1B
:104A000003AA11600449884201D104B080BD04208A
:104A1000FFF78EF97F030060BC03009080B584B07F
:104A200002910190074801A9FFF7B6FF03AA1160A0
:104A30000549884202D1039804B080BD0420FFF7E5
:104A400077F9C0462C0500606705009080B588B0F6
:104A500001AF0FC70A9805900B980690074801A967
:104A6000FFF79AFF07AA11600549884202D107980B
:104A700008B080BD0420FFF75BF9C0463B0700602B
:104A8000AD07009080B582B0009007486946FFF7F7
:104A900083FF01AA11600549884202D1019802B042
:104AA00080BD0420FFF744F9DB0A0060640A00902F
:104AB00080B584B002910190074801A9FFF76CFF0F
:104AC00003AA11600549884202D1039804B080BD51
:104AD0000420FFF72DF9C046CF100060D8100090D9
:104AE00080B584B000AB07C307486946FFF754FFA1
:104AF00003AA11600549884202D1039804B080BD21
:104B00000420FFF715F9C0462B1F0060311F0090ED
:104B100080B588B001AF0FC70A9805900B98069032
:104B2000074801A9FFF738FF07AA11600549884225
:104B300002D1079808B080BD0420FFF7F9F8C046FD
:104B4000E22100603C21009080B586B000AF0FC725
:104B50000898049007486946FFF71EFF05AA1160F0
:104B60000549884202D1059806B080BD0420FFF7B0
:104B7000DFF8C046172B0060C72B009080B586B0C9
:104B800000AF0FC70898049007486946FFF704FF75
:104B900005AA11600549884202D1059806B080BD7A
:104BA0000420FFF7C5F8C046F32C0060E32C00900A
:104BB00080B584B000AB07C306486946FFF7ECFE3A
:104BC00003AA11600449884201D104B080BD0420C9
:104BD000FFF7AEF8593300602B33009080B584B0F6
:104BE00000AB07C306486946FFF7D6FE03AA11606B
:104BF0000449884201D104B080BD0420FFF798F831
:104C000031340060CA34009080B584B002910190C4
:104C1000074801A9FFF7C0FE03AA116005498842B1
:104C200002D1039804B080BD0420FFF781F8C0468C
:104C3000373E0060503E009080B586B001AF0FC790
:104C4000074801A9FFF7A8FE05AA11600549884297
:104C500002D1059806B080BD0420FFF769F8C04670
:104C60009F4000601D40009080B586B000AF0FC728
:104C70000898049006486946FFF78EFE05AA116061
:104C80000449884201D106B080BD0420FFF750F8E6
:104C9000A64200604842009080B586B000AF0FC7C2
:104CA0000898049006486946FFF776FE05AA116049
:104CB0000449884201D106B080BD0420FFF738F8CE
:104CC0007D430060E043009080B586B000AF0FC721
:104CD0000898049006486946FFF75EFE05AA116031
:104CE0000449884201D106B080BD0420FFF720F8B6
:104CF00045440060F344009080B588B001AF0FC711
:104D00000A9805900B980690064801A9FFF744FE03
:104D100007AA11600449884201D108B080BD04206F
:104D2000FFF706F84D4500603E45009080B586B01F
:104D300001AF0FC7064801A9FFF72EFE05AA1160B3
:104D40000449884201D106B080BD0420FEF7F0FF7F
:104D5000454600608C46009080B586B001AF0FC715
:104D6000064801A9FFF718FE05AA11600449884208
:104D700001D106B080BD0420FEF7DAFFE9470060EC
:104D80001947009080B586B000AF0FC7089804900F
:104D900006486946FFF700FE05AA116004498842EB
:104DA00001D106B080BD0420FEF7C2FFBA530060F7
:104DB0001E53009080B582B0074801A9FFF7ECFDB3
:104DC0006A4611600549884202D1009802B080BD50
:104DD0000420FEF7ADFFC046895B0060455B009094
:104DE00080B582B0009007486946FFF7D5FD01AA5B
:104DF00011600549884201D102B080BD0420FEF750
:104E000097FFC046E16200606F62009080B582B09B
:104E1000009007486946FFF7BFFD01AA11600549E8
:104E2000884202D1019802B080BD0420FEF780FFC5
:104E3000586400601F64009080B582B0074801A9E3
:104E4000FFF7AAFD6A4611600549884202D1009821
:104E500002B080BD0420FEF76BFFC0466E680060A4
:104E60007F68009080B584B000AB07C307486946EF
:104E7000FFF792FD03AA11600549884202D1039809
:104E800004B080BD0420FEF753FFC046D47000601C
:104E90008770009080B584B002910190064801A906
:104EA000FFF77AFD03AA11600449884201D104B0DA
:104EB00080BD0420FEF73CFF1C720060F37200907E
:104EC00080B582B0074801A9FFF766FD6A46116008
:104ED0000549884202D1009802B080BD0420FEF747
:104EE00027FFC046CF7300607F73009080B584B009
:104EF00000AB07C307486946FFF74EFD03AA1160E0
:104F00000549884203D103A8008804B080BD04206D
:104F1000FEF70EFFD17400602B740090F0B581B0E5
:104F2000044633480078002803D08321344A7A4469
:104F300043E00698452803D88321324A7A443CE06E
:104F4000072903D18321304A7A4436E01D46009078
:104F500040201E5C002E18D0052E08D12846413076
:104F60002A4979440522FEF7CFFE00282BD0284697
:104F700041300021264A7A44435C03270F40D75D25
:104F80005F404754491C8E42F6D14520285C46308C
:104F9000009988420ED14135164829463246FEF71F
:104FA000F8FD1548068015480721017009201049B1
:104FB000087006E08321174A7A440223204600F055
:104FC0004DFB01B0F0BD0B4D04262E70681C12493C
:104FD00079443246FEF7DDFD681D104979443246BA
:104FE000FEF7D7FD2878431D832120462A46E6E7B1
:104FF000DC2200206C210020DE220020C8220020BC
:10500000D82D0000CC2D0000C22D0000AA2D0000DC
:105010009C2D0000642D0000422D00003B2D00005F
:10502000F0B581B01D460E460446184600F00AFB56
:10503000002804D068460421FFF7F0FC04E068462D
:1050400004222946FEF7A5FD174F082238463146AF
:10505000FEF79FFD3846083069460422FEF799FDA9
:1050600000207873022139730121B973F873387401
:10507000284600F0E7FA8625002807D02846793030
:10508000C1B204222046FEF77BFD04E069460422FB
:105090002046FEF77EFD044A11232046294600F0F3
:1050A000DDFA01B0F0BDC0466C210020F0B583B040
:1050B000029088794B791B021F18887801904B78F1
:1050C0000E781546093DACB2A74204D0D01FD21FBE
:1050D00092B297421BD13D46002E08D083211C4A34
:1050E0007A440223029800F0B9FA03B0F0BD022B13
:1050F00018DC012B23D0022B1DD1A8B26A46106008
:10510000CB1D002202980199FFF708FFEDE7E4B2FA
:10511000A742E1D0D2B297420546DDD083210D4AA5
:105120007A44DEE7032B0ED0C12B04D183210A4A37
:105130007A440423D6E783210A4A7A44D1E78321BB
:10514000064A7A44CDE78321054A7A440823C9E711
:105150004A2C0000E82B0000F62B0000C22B0000B8
:10516000D42B0000F22B000080B581698A784B783F
:105170001B029B180A78812A09D0832A0DD0862A1F
:105180000FD1C91C00220346FFF74AFF80BDCA1C8D
:105190009BB2812100F062FA80BDC91C9AB2FFF770
:1051A00085FF80BD70B5012A13D10D460146094C1B
:1051B00020462A46FEF7EDFC60194026721B0025AA
:1051C0002946FEF7DDFC8120214632462B46FEF7BC
:1051D00049FE70BD702300208281816000224282DE
:1051E0008283827581617047F0B585B00446007F87
:1051F000C01EC0B2012857D8A08A628A904227D91F
:10520000A57D032301260295002D00D033464F1EB5
:1052100000250E460395ED1B7D41AD005D19402331
:105220005F1B811AB94200DC0F4601957819049082
:10523000012E3546039E029806D11D4804262146BC
:105240003246FEF7A6FCA07D00280BD0401E13E0DE
:105250002AD100206082A083A075A168A1611349B2
:10526000087021E03420205C11498855012030432A
:10527000627D0A54461C207D0D4B9855A16900297A
:1052800006D0BAB201981818638AC918FEF781FCD3
:10529000608AC0196082A07D401CA075049881B20C
:1052A00003482A46FFF77EFF05B0F0BDDC22002050
:1052B00070230020F0B587B016460A4604460371F5
:1052C000007F811E02290FD2DA48062101727A215D
:1052D000C9433A313422A1540021A1750422227716
:1052E0000830A061618263E01D46042805D10020DA
:1052F0006082A083A075A068A061681E0023191AAF
:1053000041418F00781CB04244D80490012D05978C
:1053100006950CD1154604222046294637461E46DE
:10532000FEF737FC2A46069D33463E46059F608AB7
:10533000002811D0012D29D120460E301546042217
:10534000214637461E46FEF7DFFC2A46069D3346B9
:105350003E46059F002819D0032138460843B04235
:1053600018D80191D01903901546D0577A21C94316
:105370007A3149B28522884247DDAE480421017264
:105380003A3215463422A554A3750DE00220384365
:10539000B04215D9A748852101727A21C9433A3113
:1053A0003422A154A375042121770830A0616382BF
:1053B0000120A08221792046FFF716FF07B0F0BD3B
:1053C000607FA8425AD1207F012866D1012D00D0EC
:1053D00089E004200390104621461546039A37467B
:1053E0001E46FEF791FC2A46069D33463E46059F23
:1053F000002878D08F48062101727A21C9433A31BA
:105400003422A154A3750399CEE70293069801288C
:1054100013D1207F01281CD121460E310092042295
:105420002046FEF771FC009A002806D00398007809
:10543000511CC9B2884200D0DDE0207F012808D18C
:105440000698012879D103980078511CC9B2884286
:1054500073D102203843285C0499695C09020F1853
:10546000A089C01E874221DD7248019901723A323B
:1054700034216254029AA275042167E07A20C04365
:10548000014608316B4A11723A3034216054A375D9
:10549000042020770832A26189E7012D3ED1002047
:1054A0006082A083A075A068A06187E70398007858
:1054B0008128029B069D04D086284CD0832800D0EA
:1054C00084E00092012D52D15B49794404222046A8
:1054D0000492FEF719FC002800D1A0E05749794456
:1054E000042220463FE0D119D05DA27D904215D123
:1054F00002930498361A608AA28A121A964200DB36
:105500001646B2B2A3691818491CFEF742FB608A1E
:1055100080196082A07D401CA0753EE045480421B2
:1055200001727A22D2433A321D463423E254A575E1
:1055300021770830A06165823AE73E480421017274
:105540003A3213463422A354029AA27521770830C6
:10555000A06162822CE7012D38D10092384979444C
:10556000042220460492FEF7CFFB002857D005986E
:10557000361AFF1CBE4200DB3E46B2B2A069039958
:10558000FEF707FBA782668265770298A075204622
:105590000E3004222146FEF7FCFA608A012D01D16B
:1055A000A18A0CE0A18ACA1C824208D221480321A8
:1055B00001727A21C9433A313422A1545AE7884210
:1055C00013D2012020770020A062F7E619480121BC
:1055D00001723A3215463422A554A375042222776B
:1055E0000830A0616382A182E4E602202077204691
:1055F000FFF7BAFDE2E60F4D164604222846214683
:10560000FEF7C7FA029868713A362E710122AA7124
:105610000620E87108212846FFF7C4FDCEE60548BC
:105620000B210172009A3A32342162540299A17519
:10563000049A54E6702300206428000054280000D7
:10564000D427000080B5044979440422FEF75CFBAE
:105650000021091A484180BDE626000010B5342417
:105660000155002181750324047782614182838280
:10567000417FFFF7B9FD10BD0249002008600249D3
:1056800008607047B4230020B023002010B50748FD
:10569000002444704F210170012181700221C170EA
:1056A0000421FFF7F7FB204610BDC046001800207C
:1056B00070B582B06D4600246C704F262E700220AB
:1056C000A8700320E8702C7105212846FFF7E2FB43
:1056D0006C702E700120A870E87004212846FFF736
:1056E000D9FB204602B070BD10B582B001A80024DD
:1056F00044704F210170012181700221C170042189
:10570000FFF7C8FB204602B010BD0000B0B582B064
:10571000144800240460144804606D464F2028702B
:105720006C700520A8700420E87001202871697150
:10573000AC71012A05DC002A0AD0012A0AD1042012
:1057400006E0022A03D0032A04D1022000E003204D
:10575000694688716846C3710821FFF79BFB0020EA
:1057600002B0B0BDB4230020B023002010B582B039
:105770006846002444704F22027005228270042281
:10578000C2700122027141718471C4710821FFF756
:1057900081FB204602B010BDB0B582B00D46684610
:1057A000002444705021017003218170C570402194
:1057B000017144710621FFF76DFB280601D50748EA
:1057C00000E0054801687F2215400122AA400A43F3
:1057D0000260204602B0B0BDB4230020B0230020F8
:1057E000B0B582B00D466846002444705021017067
:1057F00003218170C5708021017144710621FFF77A
:1058000049FB280601D5074800E0054801687F22CA
:1058100015400122AA4091430160204602B0B0BD6C
:10582000B4230020B0230020080601D5054800E07D
:10583000034802787F2001400120884010407047D3
:10584000B4230020B023002010B582B068460024A5
:1058500044704F220270022282700322C2700171D2
:105860000521FFF717FB204602B010BDB0B582B08E
:105870001C461546684650220270C17020210171F5
:105880004371D91C8170090A41700621FFF702FBA0
:1058900028462146FFF7FEFA002002B0B0BD10B541
:1058A00082B0684600244470502303700323837041
:1058B000C1703021017142710621FFF7EBFA2046D9
:1058C00002B010BD70B504460220002C12D015465F
:1058D0000E4645208100204600F0D2FF002E01D068
:1058E000F0202650DC200121215425702046FFF7AE
:1058F000C3FE002070BDB0B50446DC200121215458
:105900001720C5436019432189004058002806D05C
:105910004068FFF72BF8024621792046904708356A
:10592000F0D12046FFF7E0FE2046FFF7AFFE002053
:10593000B0BD03460220002A07D00020022B04D865
:10594000D8000818F42142500020704780B5FFF7B6
:10595000AFFE002080BDF0B581B00C4605460026A4
:10596000F4272846314600F069F9002807D0E859A5
:105970000068FEF7FBFF024628462146904708379D
:10598000761C032EEDD1002001B0F0BDF0B581B042
:105990000C4605460026F4272846314600F04EF90D
:1059A000002807D0E8594068FEF7E0FF0246284685
:1059B000214690470837761C032EEDD1002001B018
:1059C000F0BDB0B504460546E835284600F07FFB3B
:1059D000D42001212150EE20205AD8216050E82007
:1059E000215C1F200840022808D001280BD0002885
:1059F0000ED12046294600F02EF90EE02046294619
:105A000000F0E1FA09E02046294600F0B8FA04E087
:105A1000802001402046FFF7BFFE0020B0BDF0B55A
:105A200083B002920446019100291CD02546DC3542
:105A30000027F4262046394600F000F900280DD052
:105A4000A0598069002809D02978032906D1FEF7DA
:105A50008DFF034620460199029A984708367F1C1D
:105A6000032FE7D130E0D420205803282CD1802008
:105A70002058E16F81420AD9091AE167814200D3B7
:105A800001468AB22046029900F00EFD1CE026462F
:105A9000DC360025F4272046294600F0CFF8002800
:105AA0000BD0E0590069002807D03178032904D1D0
:105AB000FEF75CFF01462046884708376D1C032D22
:105AC000E9D1204600F0F7FC002003B0F0BDF0B5AE
:105AD00081B00446009100291BD02746DC37002600
